:020000040000FA
:06000000E4EF42F01200E3
:020006001200E6
:08000800CF68CE6A4AEF34F024
:020010001200DC
:08001800D8CFE4FFE0CFE4FFC4
:10002000E46EDACFE4FFE2CFDAFFE9CFE4FFEACF14
:10003000E4FFF6CFE4FFF7CFE4FFF5CFE4FFF3CF23
:10004000E4FFF4CFE4FFFACFE4FF00EE23F0140E58
:10005000E80403E3EECFE4FFFBD700EE61F0050E0A
:10006000E80403E3EECFE4FFFBD7E6529EA2A5D05F
:100070009E92C2B2A2D060B0A0D0C3505E6EC450F7
:100080005F6E0201EF512CE1050EC26E0201EE51CE
:10009000E96EEA6AD890E936EA368E0EE926020E53
:1000A000EA22EE500201F05FEE500201F15B020124
:1000B000EE51E96EEA6AD890E936EA368E0EE92604
:1000C000020EEA225EC0EEFF5FC0EDFF5E5002014D
:1000D000F0275F500201F1230201010EEF6F6CD097
:1000E0000201EF052CE1090EC26E0201EE51E96E2C
:1000F000EA6AD890E936EA36AE0EE926020EEA221E
:10010000EE500201F25FEE500201F35B0201EE518C
:10011000E96EEA6AD890E936EA36AE0EE926020EB2
:10012000EA225EC0EEFF5FC0EDFF5E500201F227E3
:100130005F500201F3230201020EEF6F3DD0020E69
:100140000201EF5D39E160B237D0010EC26E0201EB
:10015000EE51E96EEA6AD890E936EA36CE0EE92623
:10016000020EEA22EE500201F45FEE500201F55B4E
:100170000201EE51E96EEA6AD890E936EA36CE0E0F
:10018000E926020EEA225EC0EEFF5FC0EDFF5E5080
:100190000201F4275F500201F5230201EF6B020117
:1001A000EE2B0F0E0201EE175D2A5DA605D05D6AEB
:1001B000A9EC28F02AEC27F0C282F2A405D0E0ECEA
:1001C00036F04BEC3CF0F2949D50100B16E0AC5026
:1001D000020B13E05A50595C0FE05B5000080BE231
:1001E0005A505A2AEA6A800FE96E010EEA22EF504D
:1001F000AD6E5A9E5B0601D09D989EAA1CD0AE5053
:100200005C6EABA202D0AB98AB885850696E6A6A3C
:10021000D8906A5004E6800E695C000E6A580BE2C2
:100220005650562AEA6A000FE96E010EEA225CC0B7
:10023000EFFF569E582AE55200EE65F0050EE804E1
:1002400003E3E5CFEDFFFBD700EE36F0140EE80434
:1002500003E3E5CFEDFFFBD7E5CFFAFFE5CFF4FFF2
:10026000E5CFF3FFE5CFF5FFE5CFF7FFE5CFF6FFED
:10027000E5CFEAFFE5CFE9FFE5CFDAFFE550E5CFCF
:08028000E0FFE5CFD8FF1000FC
:080288000100F0850000660F83
:0602900000001000000058
:0A029600D9CFE6FFE1CFD9FF000148
:1002A000B26BFB0EDBCFB3F0FC0EDBCFB4F0000182
:1002B000BD6BBE6B5DD9E66A40EC09F0E552D950E2
:1002C000FD0FE96EFF0EDA20EA6EEE50ED1007E04A
:1002D000FD0EDBCFEFF0FE0EDBCFF0F005D000011E
:1002E000680EEF6F750EF06FB3C0F6FFB4C0F7FF86
:1002F000080EF626000EF7220900F5CF61F008007F
:10030000F5CF62F0615062100FE0B3C0F6FFB4C0E9
:10031000F7FF080EF626000EF7220900F5CF80F051
:100320000A00F5CF81F005D00001680E806F750ED0
:10033000816FB3C0F6FFB4C0F7FF0800F5500B0A99
:1003400001E00FD00301800E2C6F0F0E2D6F080EF1
:100350000001BD6FBE6B010EE66ED6EC0AF0E552F1
:100360000BD0010EE66E78EC09F0E5520301DE0ECB
:100370002C6F0B0E2D6F00D0E552E7CFD9FF120086
:100380000001090EBD1901E1BE5106E1090EE66E3C
:1003900057EC2CF0E55217D00001080EBD1901E111
:1003A000BE5106E1010EE66E04EC2CF0E5520BD0D6
:1003B0000001080EBD5D000EBE5905E2BDC0E6FF9E
:1003C000FBEC2CF0E5520301DE0E2C6F0B0E2D6FB3
:1003D0000001BD6BBE6BE66A40EC09F0E552010E10
:1003E000E66E78EC09F0E5520001680E806F750E3C
:1003F000816F12000001080EBD1901E1BE5107E135
:10040000E66A04EC2CF0E55218EC1DF00BD000016C
:10041000080EBD5D000EBE5905E2BDC0E6FF7DECD5
:100420002DF0E552EFC02CF3F0C02DF312000001C7
:10043000080EBD1901E1BE5107E1E66A04EC2CF09B
:10044000E55218EC1DF00DD00001080EBD5D000E48
:10045000BE5907E2BDC0E6FFAFEC3FF0E55218EC35
:100460001DF0EFC02CF3F0C02DF312000001CD6B96
:10047000B3C0F6FFB4C0F7FF050EF626000EF72254
:100480000900F5CFBFF00A00F5CFC0F00001CE6B38
:10049000B3C0F6FFB4C0F7FF020EF626000EF72237
:1004A0000800F5500001CE5D17E20001CE510001B9
:1004B000EA6ABF25E96EC051EA22EF50E66E0001FC
:1004C000CE51EA6ACF0FE96E000EEA22E552E750FC
:1004D000EF6E0001CE2BDCD70001CE5120080AE3DD
:1004E0000001CE51EA6ACF0FE96E000EEA22000148
:1004F000CE2BF2D70001CE6B0001BD6BBE6B06D8D0
:1005000003019E0E2C6F100E2D6F1200CF0EE66EA3
:10051000000EE66EE66AE66AA6EC17F0E552E552D2
:10052000E552E5520001CD51010A12E0010A01E055
:100530001ED02D0EE66E190EE66E010EE66ECEC0D2
:10054000E6FFCCEC16F0E552E552E552E5520FD04D
:100550002B0EE66E190EE66E010EE66ECEC0E6FFBD
:10056000CCEC16F0E552E552E552E55200D012000F
:10057000B3C0F6FFB4C0F7FF0800F5500D0A53E012
:10058000010A42E0080A31E0020A2FE0040A1EE0F4
:10059000010A1CE0040A1AE00F0A18E00D0A16E02E
:1005A000050A05E0010A03E00A0A01E03FD0B3C0F2
:1005B000F6FFB4C0F7FF030EF626000EF72209007F
:1005C000F5CFB5F00A00F5CFB6F031D0B3C0F6FFE5
:1005D000B4C0F7FF030EF626000EF7220900F5CF90
:1005E000B7F00A00F5CFB8F022D0B3C0F6FFB4C020
:1005F000F7FF030EF626000EF7220900F5CFB9F03B
:100600000A00F5CFBAF013D0B3C0F6FFB4C0F7FFBD
:10061000030EF626000EF7220900F5CFBBF00A0004
:10062000F5CFBCF004D022DFFCD001D000D0B3C0A5
:10063000F6FFB4C0F7FF050EF626000EF7220900FC
:10064000F5CF61F00800F5CF62F06150621001E172
:10065000B0D0B3C0F6FFB4C0F7FF050EF626000E0B
:10066000F7220900F5CFBFF00A00F5CFC0F0000176
:10067000BD6BBE6BB3C0F6FFB4C0F7FF0800F5500A
:10068000040A01E18CD0020A01E189D00F0A01E1DC
:1006900086D00C0A38E0070A03E0010A01E088D09E
:1006A0000001BD6BBE6B0001FF0EBD5D000EBE59AB
:1006B00026E2020E2B6E2C6ABDC030F0BEC031F0B7
:1006C000A3EC41F000010001B7512924F66E0001AE
:1006D0000001B8512A20F76E0900F5CF61F008003B
:1006E000F5CF62F0BFC0E9FFC0C0EAFFEF50625C27
:1006F00001E167D00001BD2B000EBE23D4D700015D
:10070000BD6BBE6B55D0BFC0E9FFC0C0EAFFEFCFE5
:10071000F1F0B3C0F6FFB4C0F7FF070EF626000EE7
:10072000F7220800F5500001F1170001BD6BBE6B08
:10073000B3C0F6FFB4C0F7FF020EF626000EF72294
:100740000800F550616E626A00016150BD5D625043
:10075000BE5921E2020E2B6E2C6ABDC030F0BEC025
:1007600031F0A3EC41F000010001B7512924F66EED
:1007700000010001B8512A20F76EF62A000EF72278
:100780000800F5500001F15D01E11BD00001BD2B17
:10079000000EBE23CDD70001BD6BBE6B09D0BFC01C
:1007A000E9FFC0C0EAFFEF500001BD6FBE6B00D093
:1007B00008D00001C10EBF6F000EC06F0001BD6BFD
:1007C000BE6BB3C0F6FFB4C0F7FF0800F5500B0ACC
:1007D00001E001D026D0B3C0F6FFB4C0F7FF080E89
:1007E000F626000EF7220900F5CF61F00800F5CFDC
:1007F00062F0615062100FE0B3C0F6FFB4C0F7FFC3
:10080000080EF626000EF7220900F5CF80F00A0048
:10081000F5CF81F005D00001680E806F750E816FF5
:1008200000D01200100E0001B25D39E20001B25199
:10083000E96EEA6AD890E936EA36820EE926000EB9
:10084000EA22B3C0EEFFB4C0EDFF0001B251EA6A84
:10085000A20FE96E000EEA22BDC0EFFF0001B22B2D
:100860000A0E2B6E2C6ABDC030F0BEC031F0A3EC76
:1008700041F000010001B55129240001B36F0001CE
:100880000001B6512A200001B46F72DEE66A40EC26
:1008900009F0E552010EE66E78EC09F0E55212001F
:1008A0000001B25127E00001B2070001B251E96E28
:1008B000EA6AD890E936EA36820EE926000EEA2284
:1008C000EECFB3F0EDCFB4F053DE0001B251EA6ADF
:1008D000A20FE96E000EEA22EF500001BD6FBE6B61
:1008E000E66A40EC09F0E552010EE66E78EC09F09C
:1008F000E55204D0EFC02CF3F0C02DF3120005D068
:1009000081C0FAFF00018051F96EFADFC9DF1200E1
:10091000B3C0F6FFB4C0F7FF0800F550090A01E1C3
:10092000A8D00E0A01E17AD00F0A01E177D00C0AB3
:1009300067E0020A65E0030A2AE0070A03E0010A09
:1009400001E09ED0020E2B6E2C6ABDC030F0BEC0FE
:1009500031F0A3EC41F000010001B7512924F66EFB
:1009600000010001B8512A20F76EF62A000EF72286
:100970000800F550BFC0E9FFC0C0EAFFEF6E05D028
:1009800081C0FAFF00018051F96EFADF79D0BFC053
:10099000E9FFC0C0EAFFEFCFF2F0B3C0F6FFB4C08A
:1009A000F7FF070EF626000EF7220800F51C0001DF
:1009B000F217020E2B6E2C6ABDC030F0BEC031F0B3
:1009C000A3EC41F000010001B7512924F66E0001AB
:1009D0000001B8512A20F76EF62A000EF72208000F
:1009E000F5500001F211BFC0E9FFC0C0EAFFEF6E91
:1009F00005D081C0FAFF00018051F96EFADF40D0C6
:100A0000BFC0E9FFC0C0EAFFBDC0EFFF05D081C095
:100A1000FAFF00018051F96EFADF32D00001C651B1
:100A2000C71126E1020E2B6E2C6ABDC030F0BEC08D
:100A300031F0A3EC41F000010001B7512924F66E1A
:100A400000010001B8512A20F76E0900F5CF61F0CE
:100A50000800F5CF62F0BFC0E9FFC0C0EAFF6250F6
:100A6000EF1A05D081C0FAFF00018051F96EFADF5C
:100A700007D0BFC0E9FFC0C0EAFFBDC0EFFF00D094
:100A8000E66A40EC09F0E552010EE66E78EC09F0FA
:100A9000E5521200080E2B6E2C6ABDC030F0BEC0AD
:100AA00031F0A3EC41F000010001BB512924F66EA6
:100AB00000010001BC512A20F76E060EF626000E3A
:100AC000F7220900F5CF61F00800F5CF62F0615020
:100AD000621001E179D0080E2B6E2C6ABDC030F097
:100AE000BEC031F0A3EC41F000010001BB5129244C
:100AF000F66E00010001BC512A20F76EF62A000EA6
:100B0000F7220800F550110A35E0030A33E0010A24
:100B100031E0070A2FE01A0A05E0010A03E01F0A84
:100B200001E051D0080E2B6E2C6ABDC030F0BEC063
:100B300031F0A3EC41F000010001BB512924F66E15
:100B400000010001BC512A20F76E060EF626000EA9
:100B5000F7220900F5CFBFF00A00F5CFC0F0BFC003
:100B6000E9FFC0C0EAFFEFCFC9F00001CA6BCB6B51
:100B7000CC6B29D0080E2B6E2C6ABDC030F0BEC0E5
:100B800031F0A3EC41F000010001BB512924F66EC5
:100B900000010001BC512A20F76E060EF626000E59
:100BA000F7220900F5CFC2F00A00F5CFC3F0C2C0AA
:100BB000E9FFC3C0EAFFEECFC9F0EFCFCAF00001F2
:100BC000CB6BCC6B00D00AD00001C10EBF6F000E02
:100BD000C06F0001C40EC26F000EC36F120006EC9E
:100BE0003CF0F3CFC6F0F4CFC7F017EC3CF00001B7
:100BF000C86F0001C85102E035EC3CF012EC3CF04B
:100C00000001C851020A09E0010A05E0020A01E0F8
:100C10003AD075DE38D044DE36D0B3C0F6FFB4C06B
:100C2000F7FF0800F5500C0A1EE00B0A1AE00F0A45
:100C300018E00A0A13E0010A11E0070A0FE0020AAD
:100C40000DE00F0A0BE00C0A09E0050A05E0010AB5
:100C500003E00A0A01E016D0E5DD14D059DE4FDECC
:100C600011D056DE0FD0E66A43DBE55213DF010EEA
:100C7000E66EB5EC0BF0E55203011E0E2C6F0D0E67
:100C80002D6F00D000D00001C73504E2C651000826
:100C9000000EC7551BE20001BD2B000EBE23B3C0E2
:100CA000F6FFB4C0F7FF020EF626000EF72208008A
:100CB000F550616E626A00016150BD5D6250BE59BF
:100CC00003E30001BD6BBE6B23DE28D00001800E64
:100CD000C71524E00001BD07000EBE5BB3C0F6FFE0
:100CE000B4C0F7FF020EF626000EF7220800F550FA
:100CF000616E626A00016150BD5D6250BE590DE3D4
:100D0000B3C0F6FFB4C0F7FF020EF626000EF722BE
:100D10000800F5040001BD6FBE6BFADD120006ECA1
:100D20003CF0F3CFC6F0F4CFC7F017EC3CF0000175
:100D3000C86F0001C85102E035EC3CF012EC3CF009
:100D40000001C851020A10E0030A01E051D0E66A2E
:100D500097DAE552010EE66ECBDAE5520301DE0EBC
:100D60002C6F0B0E2D6F44D0080E2B6E2C6ABDC05D
:100D700030F0BEC031F0A3EC41F000010001BB51E6
:100D80002924F66E00010001BC512A20F76EF62AD4
:100D9000000EF7220800F550110A14E0030A12E0D1
:100DA000010A10E0070A0EE01A0A05E0010A03E052
:100DB0001F0A01E010D0BFC0E9FFC0C0EAFFC9C0F0
:100DC000EFFF09D0C2C0E9FFC3C0EAFFC9C0EEFF10
:100DD000CAC0EDFF00D0E66A53DAE552010EE66EB6
:100DE00087DAE5520301DE0E2C6F0B0E2D6F00D05B
:100DF0000001C651C71101E1C2D0C6C061F0C7C031
:100E000062F0636A646A62AE02D0636864686150CB
:100E10000001C92762500001CA2363500001CB239F
:100E200064500001CC23080E2B6E2C6ABDC030F03C
:100E3000BEC031F0A3EC41F000010001BB512924F8
:100E4000F66E00010001BC512A20F76E020EF62654
:100E5000000EF7220900F5CF61F00800F5CF62F02F
:100E6000636A646A0001CC516418E8AE02D064344D
:100E70000CD061500001C95D62500001CA59635035
:100E80000001CB5964500001CC5921E2080E2B6EB1
:100E90002C6ABDC030F0BEC031F0A3EC41F00001BF
:100EA0000001BB512924F66E00010001BC512A202B
:100EB000F76E020EF626000EF7220900F5CFC9F0F4
:100EC0000800F5CFCAF00001CB6BCC6B53D0080EF5
:100ED0002B6E2C6ABDC030F0BEC031F0A3EC41F0E7
:100EE00000010001BB512924F66E00010001BC5134
:100EF0002A20F76E040EF626000EF7220900F5CF21
:100F000061F00800F5CF62F0636A646A6450000122
:100F1000CC19E8AE02D0CC350CD00001C951615CCF
:100F20000001CA5162580001CB5163580001CC51F5
:100F3000645820E2080E2B6E2C6ABDC030F0BEC093
:100F400031F0A3EC41F000010001BB512924F66E01
:100F500000010001BC512A20F76E040EF626000E97
:100F6000F7220900F5CFC9F00800F5CFCAF000015B
:100F7000CB6BCC6B010EE66EB5EC0BF0E5521200BC
:100F800006EC3CF0F3CFC6F0F4CFC7F017EC3CF022
:100F90000001C86F0001C85102E035EC3CF012ECD2
:100FA0003CF00001C851020A12E0010A05E0020A01
:100FB00001E015D075DC13D00001BD69BE6905D014
:100FC00081C0FAFF00018051F96EFADF08D005D028
:100FD00081C0FAFF00018051F96EFADF00D00001F4
:100FE000C73504E2C6510008000EC75529E20001CA
:100FF000BD2B000EBE23B3C0F6FFB4C0F7FF070E33
:10100000F626000EF7220800F5500BE10001090E4C
:10101000D880BD55000EBE5503E20001BD6BBE6B0E
:101020000AD00001080ED880BD55000EBE5503E25F
:101030000001BD6BBE6B010EE66EB8DAE5522ED034
:101040000001800EC7152AE00001BD07000EBE5B3F
:10105000B3C0F6FFB4C0F7FF070EF626000EF72266
:101060000800F5500CE10001090ED880BD55000EB6
:10107000BE5504E2090E0001BD6FBE6B0BD000012E
:10108000080ED880BD55000EBE5504E2080E0001C2
:10109000BD6FBE6B010EE66E89DAE552120006ECFA
:1010A0003CF0F3CFC6F0F4CFC7F017EC3CF00001F2
:1010B000C86F0001C85102E035EC3CF012EC3CF086
:1010C0000001C851020A3BE0010A0BE0020A01E0FC
:1010D00049D00301DE0E2C6F0B0E2D6F50EC04F087
:1010E00041D00001CE6BB3C0F6FFB4C0F7FF020ED3
:1010F000F626000EF7220800F5500001CE5D17E23B
:101100000001CE51EA6ACF0FE96E000EEA22EF50DD
:10111000E66E0001CE510001EA6ABF25E96EC051BA
:10112000EA22E552E750EF6E0001CE2BDCD7030137
:10113000DE0E2C6F0B0E2D6F50EC04F013D000015F
:10114000CD710001CDA10BD00001CE51EA6ACF0FC5
:10115000E96E000EEA22EF500001BD6FBE6B86EC17
:1011600002F000D00001C73504E2C6510008000EAD
:10117000C7553CE20001CD51010A15E0010A01E02A
:1011800032D00001CE2BB3C0F6FFB4C0F7FF020E81
:10119000F626000EF7220800F5500001CE5D02E3AE
:1011A0000001CE6B20D00001C6510001BD27000117
:1011B000C7510001BE230001BD9F0001BE6B0001AD
:1011C000200EBD5D000EBE5904E2200E0001BD6F71
:1011D000BE6B0001CE51EA6ACF0FE96E000EEA2223
:1011E000BDC0EFFF00D086EC02F049D00001800EB8
:1011F000C71545E00001CD51010A1FE0010A01E0D9
:101200003CD00001CE07B3C0F6FFB4C0F7FF020E1A
:10121000F626000EF7220800F5500001CE5D0CE323
:10122000B3C0F6FFB4C0F7FF020EF626000EF72299
:101230000800F5040001CE6F20D00001C651000166
:10124000BD270001C7510001BE230001BD9F000161
:10125000BE6B0001200EBD5D000EBE5904E27F0E84
:101260000001BD6FBE6B0001CE51EA6ACF0FE96E7F
:10127000000EEA22BDC0EFFF00D086EC02F01200A3
:10128000D9CFE6FFE1CFD9FFB3C0F6FFB4C0F7FF77
:101290000800F5500D0A01E002D026D025D0B3C0D9
:1012A000F6FFB4C0F7FFF62A000EF7220800F5504B
:1012B000020D030103010E51F324F66E0301030135
:1012C0000F51F420F76E0900F5CFE6FF0800F5CFC7
:1012D000E6FFFE0EDBCFE6FFE66ACCEC16F0E55249
:1012E000E552E552E55200D0E552E7CFD9FF1200B2
:1012F000D9CFE6FFE1CFD9FFB3C0F6FFB4C0F7FF07
:101300000800F5500C0A01E11CD1050A01E101D1E8
:101310000D0A01E1D4D0020A01E1D1D0010A72E044
:101320000F0A70E00A0A3DE0010A3BE0060A39E0D4
:10133000050A03E00B0A01E035D10A0E2B6E2C6A78
:10134000BDC030F0BEC031F0A3EC41F0000100019F
:10135000B5512924F66E00010001B6512A20F76E1E
:10136000F62A000EF7220800F550020D03010301D2
:101370000E51F324F66E030103010F51F420F76EB2
:101380000900F5CFE6FF0800F5CFE6FFFE0EDBCF44
:10139000E6FFE66ACCEC16F0E552E552E552E5527E
:1013A00001D1020E2B6E2C6ABDC030F0BEC031F0F0
:1013B000A3EC41F000010001B7512924F66E0001B1
:1013C0000001B8512A20F76E0800F550020D030104
:1013D00003010E51F324F66E030103010F51F420B3
:1013E000F76E0900F5CFE6FF0800F5CFE6FFFE0E29
:1013F000DBCFE6FFE66ACCEC16F0E552E552E552AB
:10140000E552D0D0020E2B6E2C6ABDC030F0BEC0AB
:1014100031F0A3EC41F000010001B7512924F66E30
:1014200000010001B8512A20F76E0800F550020DA6
:10143000030103010E51F324F66E030103010F5162
:10144000F420F76E0900F5CFE6FF0800F5CFE6FFC0
:10145000FE0EDBCFE6FF010EE66ECCEC16F0E55299
:10146000E552E552E552020E2B6E2C6ABDC030F0FB
:10147000BEC031F0A3EC41F000010001B7512924B6
:10148000F66E00010001B8512A20F76E0900F5CF71
:1014900061F00800F5CF62F0BFC0E9FFC0C0EAFF0D
:1014A000EF5062140BE02A0EE66EFE0EDBCFE6FF75
:1014B000E66AE5EC17F0E552E552E55273D000011B
:1014C0000001B9510001BD25F66E00010001BA51BD
:1014D0000001BE21F76E0800F550020D0301030163
:1014E0000E51F324F66E030103010F51F420F76E41
:1014F0000900F5CFE6FF0800F5CFE6FFFE0EDBCFD3
:10150000E6FFE66ACCEC16F0E552E552E552E5520C
:1015100049D0BDC0E6FFB3EC2BF0E552F3CF61F04C
:10152000F4CF62F061C0E6FF62C0E6FFFE0EDBCFE3
:10153000E6FFE66AA6EC17F0E552E552E552E55201
:1015400031D0080E2B6E2C6ABDC030F0BEC031F019
:10155000A3EC41F000010001BB512924F66E00010B
:101560000001BC512A20F76E0800F550020D03015E
:1015700003010E51F324F66E030103010F51F42011
:10158000F76E0900F5CFE6FF0800F5CFE6FFFE0E87
:10159000DBCFE6FFE66ACCEC16F0E552E552E55209
:1015A000E55200D0E552E7CFD9FF1200D9CFE6FFD0
:1015B000E1CFD9FF0001090EBD1901E1BE5125E1BE
:1015C000EE0E0301F76A0E25F66E0F51F7220900A1
:1015D000F5CFE6FF0800F5CFE6FFFE0EDBCFE6FF16
:1015E000E66ACCEC16F0E552E552E552E552280EDB
:1015F000E66E190EE66EE66A0E0EE66EA4EC16F0C6
:10160000E552E552E552E552ACD00001080EBD1995
:1016100001E1BE5101E078D0B3C0F6FFB4C0F7FFDE
:10162000070EF626000EF7220800F55018E1E80E26
:101630000301F76A0E25F66E0F51F7220900F5CF68
:10164000E6FF0800F5CFE6FFFE0EDBCFE6FFE66A19
:10165000CCEC16F0E552E552E552E55247D0B3C066
:10166000F6FFB4C0F7FF070EF626000EF7220800BB
:10167000F550010818E1EA0E0301F76A0E25F66E2F
:101680000F51F7220900F5CFE6FF0800F5CFE6FF7E
:10169000FE0EDBCFE6FFE66ACCEC16F0E552E55233
:1016A000E552E55223D0B3C0F6FFB4C0F7FF070EF2
:1016B000F626000EF7220800F550020817E1EC0E9E
:1016C0000301F76A0E25F66E0F51F7220900F5CFD8
:1016D000E6FF0800F5CFE6FFFE0EDBCFE6FFE66A89
:1016E000CCEC16F0E552E552E552E552280EE66ED6
:1016F000190EE66EE66A0E0EE66EA4EC16F0E552E2
:10170000E552E552E5522DD0BDC0E6FFB3EC2BF01B
:10171000E552F3CF61F0F4CF62F061C0E6FF62C042
:10172000E6FFFE0EDBCFE6FFE66AA6EC17F0E55219
:10173000E552E552E552230EE66EE66A0E0EE66EBF
:10174000E5EC17F0E552E552E552300E0001BD25FB
:10175000E66EE66A0F0EE66EE5EC17F0E552E5522E
:10176000E552E552E7CFD9FF1200D9CFE6FFE1CF2E
:10177000D9FF080E2B6E2C6ABDC030F0BEC031F010
:10178000A3EC41F000010001BB512924F66E0001D9
:101790000001BC512A20F76EF62A000EF72208003D
:1017A000F550140A01E19CD0070A01E181D0010A39
:1017B00067E0030A4EE0010A34E01F0A1AE0010A5A
:1017C00001E09DD0C9C0E6FFCAC0E6FFCBC0E6FF7E
:1017D000CCC0E6FFE66AE66A030EE66EFE0EDBCFDD
:1017E000E6FFE66A27EC1AF0616E090EE15E6150D1
:1017F00086D0C9C0E6FFCAC0E6FFCBC0E6FFCCC0BA
:10180000E6FFE66A010EE66E030EE66EFE0EDBCF25
:10181000E6FFE66A27EC1AF0616E090EE15E6150A0
:101820006ED0C9C0E6FFCAC0E6FFCBC0E6FFCCC0A1
:10183000E6FFE66A020EE66E030EE66EFE0EDBCFF4
:10184000E6FFE66A27EC1AF0616E090EE15E615070
:1018500056D0C9C0E6FFCAC0E6FFCBC0E6FFCCC089
:10186000E6FFE66AE66A050EE66EFE0EDBCFE6FFF1
:10187000E66A27EC1AF0616E090EE15E61503FD016
:10188000C9C0E6FFCAC0E6FFCBC0E6FFCCC0E6FF9A
:10189000E66A010EE66E050EE66EFE0EDBCFE6FF93
:1018A000E66A27EC1AF0616E090EE15E615027D0FE
:1018B000C9C0E6FFCAC0E6FFCBC0E6FFCCC0E6FF6A
:1018C000E66A020EE66E050EE66EFE0EDBCFE6FF62
:1018D000E66A27EC1AF0616E090EE15E61500FD0E6
:1018E000C9C0E6FFCAC0E6FFFE0EDBCFE6FFE66A30
:1018F000A0EC1CF0E552E552E552E55200D0E5526D
:06190000E7CFD9FF120041
:0A19060044656661756C7420436F40
:101910006E6669672020002A494E56414C49442092
:10192000434F4E4649472A002020005E002D002DDF
:101930002D2D2D2D2D2D2D2D2D2D2D2D2D2D0056DB
:10194000657273696F6E20005246537570706C79C2
:1019500000202020202020202020202020202020A7
:1019600020004C616E6775616765733A20496E7639
:10197000616C6964206C616E677561676520736571
:101980006C656374656400426C69747A2E204175DD
:10199000732D5A65697400426C69747A2E20416E09
:1019A0002D5A65697400426C69747A2E20537475DF
:1019B0006665486F636800426C69747A2E205374C0
:1019C0007566654B6C2E00426C69747A2E42656CAC
:1019D0002E20506172612E0050756C732E20476569
:1019E00073636877696E642E0050756C732E205394
:1019F00074756665486F63680050756C732E20536C
:101A0000747566654B6C65696E0050756C732E421B
:101A1000656C2E20506172612E004B6F6E73742EB8
:101A200042656C2E205374756665004B6F6E73743F
:101A30002E42656C2E20506172612E00426C6974DA
:101A40007A656E640050756C73696572656E6400CA
:101A50004B6F6E7374616E74004175746F2D4175B8
:101A6000732042656C2E005363686C61662042658A
:101A70006C2E004E6F726D616C652042656C2E009D
:101A800041756677537461726B2C204C7374672EAA
:101A90000041756677537461726B2C205A656974C6
:101AA0000041756677616368456E646520506172B8
:101AB000610041756677616368456E6465204B6FB0
:101AC0006E6400417566776163682D4D6F64757350
:101AD000004175746F2D417573205A656974005308
:101AE00063686C61662053636877656C6C65004C55
:101AF00065696368745363686C61665363687700F3
:101B00004C65696368745363686C61665A6569748F
:101B1000005363686C61664D6F6475732050617229
:101B20006100417573736368616C742D4175746FE6
:101B30006D2E005363686C61662D4D6F6475730084
:101B40005363686C61662D4F7074696F6E656E00CB
:101B50005363686C61665374617274205A6569746A
:101B6000004C6565726C2E2053636877656C6C65FC
:101B7000004C6565726C61756620506172616D2EF6
:101B80000041756668537461726B2C204C737467E6
:101B90002E0041756668537461726B2C205A65691A
:101BA000740041756668536368772C204C737467C2
:101BB0002E0041756668536368772C205A656974F6
:101BC000004175666865697A656E6465205061726A
:101BD00061004C65697374756E6773706567656CD9
:101BE000005A656974004175666865697A656E6456
:101BF00065204B6F6E64004C65697374756E672069
:101C000053636877616368004C65697374756E67C8
:101C100020537461726B004E6F726D616C65204C65
:101C200065697374756E67004175666865697A2DBC
:101C30004D6F647573004175746F6D6174696B2CC1
:101C400020417573004175746F6D6174696B2C2050
:101C5000416E0053746172742D4D6F647573005042
:101C60006172616D2E5361747A204E616D65004121
:101C70007573205374642E20506172616D2E004183
:101C8000757320456469742E506172616D2E004138
:101C90006B7469766965726520506172616D2E00A2
:101CA000416B7475656C6C6520506172616D2E00BE
:101CB000506172616D2E204C6164656E00506172DE
:101CC000616D2E2053706569636865726E00537490
:101CD000616E6461726420506172616D2E004E65A8
:101CE0007565205A65696C656E005A656974737410
:101CF000656D70656C00506172616D657465720030
:101D00004D6F64756C6D656C64756E67656E0053C0
:101D1000746172746D656C64756E67656E0056658E
:101D20007273696F6E73696E666F0050726F746F55
:101D30006B6F6C6C00456E676C6973636800537001
:101D40007261636865003E56657277657266656E9E
:101D5000003E4E69636874205370656963686572FC
:101D60006E003E53706569636865726E004E6575FE
:101D70007374617274005A65696765205665727381
:101D8000696F6E0042656172622E20506172616DF2
:101D90002E005370656963686572652050617261D9
:101DA0006D2E004C61646520506172616D657465D3
:101DB0007200486175707465696E7374656C6C75DA
:101DC0006E670048617570746D656E7565003E3EA6
:101DD000204B65696E6520537069747A65004D61AA
:101DE0006E75656C6C2C20537461726B004D616E66
:101DF00075656C6C2C20416E004D616E75656C6C68
:101E00002C2053636877616368004D616E75656C63
:101E10006C2C20417573004175746F2D41757300F2
:101E2000417566772E20537461726B4C7374670032
:101E3000417566772E20537461726B5A6569740020
:101E400041756677616368656E00537363686C61A2
:101E500066656E004C6565726C61756600417566FD
:101E600067656865697A74004865697A656E0041DE
:101E70007566682E20537461726B4C7374672E0004
:101E8000417566682E20537461726B5A65697400DF
:101E9000417566682E20536368772E4C7374672EE5
:101EA00000417566682E20536368772E5A65697401
:101EB000004175666865697A656E006E61636800E9
:101EC000556E6775656C74696700537461726B0059
:101ED00053636877616368004175730041656E64A0
:101EE000657265204C65697374756E67737374757C
:101EF0006665207A750041656E646572652042658D
:101F00007472696562737A757374616E64207A7530
:101F1000002A2A204B45494E45204C4F45545350EA
:101F200049545A452045524B414E4E54202A2A00CE
:101F30004C6F6574737069747A652065726B616E3D
:101F40006E7400447265686765626572004C65690D
:101F50007374756E6773737465756572756E6700FB
:101F600048462D537465756572756E67004144432C
:101F7000204B6F6E766572746572004C6F6574737A
:101F80007069747A656E2D45726B656E6E756E67DD
:101F9000005365747A6520426175647261746520CE
:101FA0006175660053657269656C6C652053636882
:101FB0006E6974747374656C6C65005072756566D7
:101FC00073756D6D652066616C7363680050727522
:101FD000656673756D6D65204F4B00537065696361
:101FE000686572652053797374656D65696E737485
:101FF000656C6C756E67656E0053706569636865C6
:10200000726520486175707465696E7374656C6C77
:10201000756E67656E0053797374656D65696E736F
:1020200074656C6C756E67656E2067656C61646560
:102030006E004C61646520676573706569636865EF
:102040007274652053797374656D65696E73746518
:102050006C6C756E67656E004C61646520676573B6
:102060007065696368657274652048617570746530
:10207000696E7374656C6C756E67656E005365741C
:102080007A65205374616E6461726420537973744D
:10209000656D65696E7374656C6C756E67656E00F1
:1020A0005365747A65205374616E6461726420486C
:1020B0006175707465696E7374656C6C756E676557
:1020C0006E004B6F6E66696775726174696F6E73CF
:1020D000737065696368657200556E6775656C74C9
:1020E0006967652053797374656D65696E7374658E
:1020F0006C6C756E67656E00556E6775656C74699E
:10210000676520486175707465696E7374656C6C81
:10211000756E67656E004B6F6E6669677572617488
:10212000696F6E7376657277616C74756E67004C5B
:1021300043442048696E7465726772756E646265A7
:102140006C6575636874756E67004C434420547207
:1021500065696265720053746172746500556E67DB
:1021600075656C746967652053707261636865009A
:10217000576165686C6520537072616368650053D0
:10218000707261636876657277616C74756E6700F2
:10219000496E697469616C697369657265204D6F18
:1021A00064756C65004465757473636800466C61A2
:1021B0007368204F66662D54696D6500466C6173C7
:1021C00068204F6E2D54696D6500466C6173682000
:1021D0004C6576656C204869676800466C61736879
:1021E000204C6576656C204C6F7700466C61736897
:1021F00020424C20506172616D2E0050756C7365E9
:102200002053706565640050756C7365204C65766D
:10221000656C20486967680050756C7365204C6573
:1022200076656C204C6F770050756C736520424C5E
:1022300020506172616D2E00436F6E73742E2042C8
:102240004C2E204C6576656C00436F6E73742E20A7
:10225000424C20506172616D2E00466C617368695A
:102260006E670050756C73696E6700436F6E7374B0
:10227000616E74004175746F204F66662042616321
:102280006B6C2E00536C656570204261636B6C69EA
:10229000676874004E6F726D616C204261636B6C95
:1022A000696768740057616B6575704273742C20A0
:1022B00050777254680057616B6575704273742C67
:1022C0002054696D650057616B65757020456E64BB
:1022D00020506172616D0057616B65757020456EAD
:1022E0006420436F6E642E0057616B657570204DDE
:1022F0006F6465004175746F2D4F66662054696D7B
:102300006500536C656570205468726573686F6C06
:1023100064004C6967687420536C7020546872655F
:102320007368004C6967687420536C65657020544D
:10233000696D6500536C656570204D6F6465205054
:102340006172616D004175746F2D506F77657264B5
:102350006F776E00536C656570204D6F6465005338
:102360006C656570204F7074696F6E7300456E7494
:10237000657220536C6565702054696D6500496411
:102380006C65205468726573686F6C640049646C96
:102390006520506172616D65746572730048656196
:1023A0007475704273742C205077725468004865BD
:1023B000617475704273742C2054696D65004865B2
:1023C000617475704C696D2C2050777254680048A8
:1023D00065617475704C696D2C2054696D65004899
:1023E000656174757020456E6420506172616D0086
:1023F000507772204C766C205468726573682E009A
:1024000054696D65640048656174757020456E643B
:1024100020436F6E642E00506F77657220426F6F9D
:10242000737400506F776572204C696D6974004E4B
:102430006F726D616C20506F7765720048656174D2
:102440007570204D6F6465004175746F2C204F6668
:1024500066004175746F2C204F6E00537461727466
:102460007570204D6F646500436F6E666967204E1E
:10247000616D650046726F6D2044656661756C74B0
:10248000204366670046726F6D204564697420437F
:102490006F6E666967004D616B6520416374697694
:1024A000650043757272656E7420436F6E6669676E
:1024B000005374617274757020504D20436F6E66C6
:1024C0002E004E65776C696E650054696D65737496
:1024D000616D7000506172616D6574657273004D5D
:1024E0006F64756C657300537461727475707300FA
:1024F00056657273696F6E20496E666F004C6F6728
:102500006765720031313532303000203537363072
:102510003000203338343030002033313532300051
:10252000203238383030002031393230300020311C
:10253000343430300020203932303000202037321F
:102540003030002020343830300020203234303019
:10255000004261756472617465004765726D616EF9
:10256000004C616E6775616765003E446973636125
:102570007264003E446F6E742073617665003E5352
:102580006176650052657365740053686F772056F5
:10259000657273696F6E004564697420436F6E667F
:1025A0006967005361766520436F6E666967004C0A
:1025B0006F616420436F6E666967004D61696E20CC
:1025C0005365747570004D61696E204D656E7500C0
:1025D0003E3E204E4F20544950004D616E75616C57
:1025E0002C20426F6F7374004D616E75616C2C20EE
:1025F0004F6E004D616E75616C2C204C696D697475
:10260000004D616E75616C2C204F666600506F77CF
:102610006572646F776E0057616B657570204273E9
:10262000742E506F7765720057616B65757020422C
:1026300073742E54696D65640057616B6575700025
:10264000536C6565700049646C650048656174652C
:10265000640048656174696E6700486561747570EF
:10266000204273742E506F776572004865617475EF
:1026700070204273742E54696D65640048656174FE
:102680007570204C696D2D506F77657200486561DB
:10269000747570204C696D2E54696D6564004865D1
:1026A0006174757000504D5F4F464600504D5F4D50
:1026B000414E55414C5F424F4F535400504D5F4D7A
:1026C000414E55414C5F4E4F524D414C00504D5F75
:1026D0004D414E55414C5F4C494D495400504D5F62
:1026E0004D414E55414C5F4F464600504D5F504F57
:1026F000574552444F574E00504D5F454E5445523A
:102700005F504F574552444F574E00504D5F574111
:102710004B4555505F504F5745525F424F4F5354B2
:1027200000504D5F57414B4555505F54494D45440E
:102730005F424F4F535400504D5F57414B455550EA
:1027400000504D5F534C45455000504D5F454E5431
:1027500045525F534C45455000504D5F49444C45F0
:1027600000504D5F454E5445525F49444C45005022
:102770004D5F48454154454400504D5F48454154E4
:10278000494E4700504D5F535441525455505F508D
:102790004F5745525F424F4F535400504D5F535473
:1027A00041525455505F54494D45445F424F4F5339
:1027B0005400504D5F535441525455505F504F5741
:1027C00045525F4C494D495400504D5F535441525E
:1027D0005455505F54494D45445F4C494D49540050
:1027E000504D5F53544152545550006166746572A8
:1027F00000496E76616C696400426F6F7374004CBF
:10280000696D6974004E6F726D616C004F66660091
:102810004368616E676520706F776572206C6576BE
:10282000656C20746F004368616E67652073746126
:10283000746520746F002A2A204E4F20544950207E
:102840004445544543544544202A2A005469702085
:10285000646574656374656400526F746172792095
:10286000456E636F64657200506F776572204D61CD
:102870006E61676572005246204D616E61676572D8
:102880000041444320436F6E766572746572005454
:102890006970204465746563746F72005365747465
:1028A000696E6720626175647261746520746F007F
:1028B00053657269616C20706F7274004368656360
:1028C0006B73756D2077726F6E6700436865636B1D
:1028D00073756D204F4B00536176696E6720737975
:1028E0007374656D2073657474696E6773005361EA
:1028F00076696E67206D61696E2073657474696EA8
:1029000067730053797374656D2073657474696EB1
:1029100067206C6F61646564004C6F6164696E6709
:102920002073746F7265642073797374656D20739E
:10293000657474696E6773004C6F6164696E6720BB
:1029400073746F726564206D61696E207365747451
:10295000696E67730053657474696E672064656699
:1029600061756C742073797374656D20736574740C
:10297000696E67730053657474696E672064656679
:1029800061756C74206D61696E2073657474696E15
:10299000677300436F6E666967204D656D6F72796E
:1029A00000496E76616C69642073797374656D207B
:1029B00073657474696E677300496E76616C6964DF
:1029C000206D61696E2073657474696E677300436E
:1029D0006F6E666967204D616E61676572004C437A
:1029E00044204261636B6C69676874004C43442007
:1029F000447269766572005374617274696E67001F
:102A0000496E76616C6964206C616E67756167659B
:102A10000053656C656374696E67206C616E6775E1
:102A2000616765004C616E6775616765206D616EF9
:102A30006167657200496E697469616C697A696E73
:102A400067206D6F64756C657300456E676C6973A4
:102A500068000D0A2A2A2A205245534554202A2A62
:102A60002A0D0A00202020202020202000202020C5
:102A700020202020202020202020202020002D2D5C
:102A80002D2D2D2D2D2D2D2D2D2D2D2D2D2D00567A
:102A900073757009565357520946574409524546B3
:102AA00009506F77657209726973650964726F7096
:102AB000095444656C7461094D52697365094D444C
:102AC000726F70094D546F74616C094D6F64650DC0
:102AD0000A00706D5F736563730909002373656392
:102AE000730909000D002000222000202200220D81
:102AF0000A003A2022003A2000203E3E3E0D0A0005
:102B00002E002056657273696F6E20005246537511
:102B100070706C79003C3C3C20000D0A0D0A000DE1
:102B20000A0031313532303000353736303000333D
:102B300038343030003331353230003238383030CC
:102B400000313932303000313434303000393630F1
:102B500030003732303000343830300032343030EA
:012B60000074
:0E2B62000F013A6B3B6B0F01640E3A5D000EE3
:102B70003B5906E200000F013A2B000E3B23F4D72D
:102B800012000F013C6B3D6B0F01C40E3C5D090E42
:102B90003D5906E200000F013C2B000E3D23F4D707
:102BA0001200D9CFE6FFE1CFD9FF898A899EF00EC6
:102BB0009416D7DFFE0EDB380F0B8B6E898C899C49
:102BC000FE0EDB500F0B8B6E898C899CE552E7CF94
:102BD000D9FF1200D9CFE6FFE1CFD9FF899A899EAC
:102BE000F00E9416BEDFFE0EDB380F0B8B6E898C59
:102BF000899CFE0EDB500F0B8B6E898C899CE552F5
:102C0000E7CFD9FF12000F01A00E3E6F860E3F6F77
:102C1000010E406F416B0F013ECF61F03FCF62F07C
:102C200040CF63F041CF64F03E07000E3F5B405B56
:102C3000415B615062106310641002E00000EBD74A
:102C4000330EE66EC7DFE552320EE66EC3DFE552A5
:102C5000280EE66EBFDFE55294DF080EE66EBADF9F
:102C6000E5528FDF010EE66EB5DFE5528ADF060E14
:102C7000E66EB0DFE55285DF0C0EE66EABDFE552A7
:102C800080DF0C0EBA6ECB68CC6A780ECA6EBB6A57
:102C9000CA847E0EE66E2A0EE66E21D8E552E55213
:102CA0000F01100E426F180E0F01425D0CE2400E34
:102CB0000F014211E66E8EDFE552E66872DFE552E3
:102CC0000F01422BF0D76D0EE66E2A0EE66EE66A15
:102CD000E66A3AD8E552E552E552E5521200D9CFFC
:102CE000E6FFE1CFD9FFFD0EDBCFF6FFDB2AFE0EBC
:102CF000DBCFF7FF01E3DB2A0800F550E66E51DF7A
:102D0000E552FD0EDBCFF6FFFE0EDBCFF7FF08002E
:102D1000F550E9E1E552E7CFD9FF1200D9CFE6FF40
:102D2000E1CFD9FFFE0EDBCF43FFFD0EDB5002E00B
:102D30000F01438D800E0F014311E66E4BDFE5520C
:102D4000E552E7CFD9FF1200D9CFE6FFE1CFD9FF97
:102D5000FD0EDBCFE6FFFE0EDBCFE6FFDFDFE55249
:102D6000E552FB0EDBCFF6FFDB2AFC0EDBCFF7FFD5
:102D700001E3DB2A0800F550E66E13DFE552FB0E97
:102D8000DBCFF6FFFC0EDBCFF7FF0800F550E9E1E3
:102D9000E552E7CFD9FF1200D9CFE6FFE1CFD9FF47
:102DA0000F01446BFD0EDBCFE6FFE66AB7DFE552AD
:102DB000E5520F014451442B616EFE0EDB50615C05
:102DC00005E2200EE66EEDDEE552F3D7FB0EDBCF1B
:102DD000F6FFDB2AFC0EDBCFF7FF01E3DB2A08005E
:102DE000F550E66EDEDEE5520F01442BFB0EDBCF25
:102DF000F6FFFC0EDBCFF7FF0800F550E7E10F010F
:102E00004451442B100805E3200EE66ECADEE5525D
:102E1000F6D7E552E7CFD9FF1200D9CFE6FFE1CFD1
:102E2000D9FF020E2B6E2C6AFB0EDBCF30F0FC0EAE
:102E3000DBCF31F0A3EC41F0030103010E51292453
:102E4000F66E030103010F512A20F76E0900F5CF3A
:102E500045FF0A00F5CF46FFFD0EDBCFE6FFFE0E75
:102E6000DBCFE6FF5BDFE552E5520F0145CFF6FF12
:102E700046CFF7FF452B000E46230800F550E66EBF
:102E800090DEE55245CFF6FF46CFF7FF0800F5503C
:102E9000ECE1E552E7CFD9FF1200D9CFE6FFE1CF51
:102EA000D9FF020E2B6E2C6AFB0EDBCF30F0FC0E2E
:102EB000DBCF31F0A3EC41F0030103010E512924D3
:102EC000F66E030103010F512A20F76E0900F5CFBA
:102ED00048FF0A00F5CF49FF0F01476BFD0EDBCF1E
:102EE000E6FFE66A1BDFE552E5520F014751472B2B
:102EF000616EFE0EDB50615C05E2200EE66E51DE77
:102F0000E552F3D70F0148CFF6FF49CFF7FF482B23
:102F1000000E49230800F550E66E43DEE5520F012E
:102F2000472B48CFF6FF49CFF7FF0800F550EAE1FD
:102F30000F014751472B100805E3200EE66E31DEE6
:102F4000E552F6D7E552E7CFD9FF1200D9CFE6FF19
:102F5000E1CFD9FF0F014A6BFD0EDBCFE6FFE66A3A
:102F6000DDDEE552E5520F014A514A2B616EFE0E3D
:102F7000DB50615C05E2200EE66E13DEE552F3D70E
:102F8000FB0EDBCFE9FFDB2AFC0EDBCFEAFF01E320
:102F9000DB2AEF50E66E05DEE5520F014A2BFB0EF1
:102FA000DBCFE9FFFC0EDBCFEAFFEF50E9E10F01D9
:102FB0004A514A2B100805E3200EE66EF2DDE55279
:102FC000F6D7E552E7CFD9FF1200D9CFE6FFE1CF20
:102FD000D9FFFD0EDBCFE6FFFE0EDBCFE6FF9EDE68
:102FE000E552E552FC0EDBCFE6FFDBDDE552E552B4
:102FF000E7CFD9FF1200D9CFE6FFE1CFD9FFFB0E13
:10300000DBCF51FFFC0EDBCF52FF0F014F6B506B3C
:103010000A0E0F01D8905233513350334F33E80624
:10302000F9E1FA0EDBCF61F0626A636A646A4F0EFF
:10303000E96E0F0EEA6E61C02EF062C02FF063C021
:1030400030F064C031F0EECF29F0EECF2AF0EECFB1
:103050002BF0EFCF2CF001EC42F028C0EDFF27C0A1
:10306000EDFF26C0EDFF25C0EFFF51CF4EFFFD0E57
:10307000DBCFE6FFFE0EDBCFE6FF50DEE552E5528A
:10308000FE0EDBCF4BFF4ECF4DFF050E0F014D5D0A
:103090000AE3050E0F014D5F020EE66E82DDE5527A
:1030A0000F014B2BF2D70F014D513AE00F011F0ECC
:1030B0004C6F050E0F01D8804D550F01070B04E032
:1030C0004C474C91E806FCE1FD0EDB5005E0480E54
:1030D000E66E80DDE55204D0400EE66E7BDDE55203
:1030E0000F014D6B080E0F014D5D07E24CCFE6FF5F
:1030F00058DDE5520F014D2BF5D7800E0F014B1116
:10310000E66E68DDE552FD0EDB5005E0010EE66E71
:1031100048DDE55203D0E66A44DDE5520F014B2B52
:10312000100E0F014B5D07E2200EE66E3ADDE55210
:103130000F014B2BF5D7E552E7CFD9FF1200D9CFBE
:10314000E6FFE1CFD9FFFD0EDBCFE6FFFE0EDBCFC2
:10315000E6FFE4DDE552E552FB0EDBCF61F0FC0E4D
:10316000DBCF62F00001800E621415E02B682C6842
:10317000FB0EDBCF30F0FC0EDBCF31F076EC41F014
:10318000FB0E29C0DBFFFC0E2AC0DBFF2D0EE66E16
:1031900008DDE55204D0200EE66E03DDE552E80EB0
:1031A000E66E030EE66EE66AE66AFB0EDBCF61F0C2
:1031B000FC0EDBCF62F0636A646A62AE02D06368C1
:1031C000646861C0E6FF62C0E6FF63C0E6FF64C0FA
:1031D000E6FFFAEC3AF0656E080EE15E655056ECDB
:1031E0003BF0300FE66EDDDCE552640EE66EE66A1B
:1031F000E66AE66A38EC3BF0E552E552E552E55204
:1032000056EC3BF0300FE66ECCDCE5520A0EE66E73
:10321000E66AE66AE66A38EC3BF0E552E552E552CA
:10322000E55256EC3BF0300FE66EBBDCE5522EEC7F
:103230003BF029C061F02AC062F02BC063F02CC0C3
:1032400064F0300E6126000E6222000E6322000E32
:1032500064226150E66EA5DCE552E552E7CFD9FF66
:103260001200D9CFE6FFE1CFD9FFFD0EDBCFE6FF9D
:10327000FE0EDBCFE6FF52DDE552E552E80EE66ECC
:10328000030EE66EE66AE66AFB0EDBCF61F0FC0E2B
:10329000DBCF62F0636A646A62AE02D0636864681E
:1032A00061C0E6FF62C0E6FF63C0E6FF64C0E6FF00
:1032B000FAEC3AF0656E080EE15E655056EC3BF0B4
:1032C0000F01536F0F015351000807E2300E0F0139
:1032D0005325E66E66DCE55204D0200EE66E61DC16
:1032E000E552640EE66EE66AE66AE66A38EC3BF0A2
:1032F000E552E552E552E55256EC3BF0300FE66EF2
:1033000050DCE5522E0EE66E4CDCE5520A0EE66EFF
:10331000E66AE66AE66A38EC3BF0E552E552E552C9
:10332000E55256EC3BF0300FE66E3BDCE5522EECFE
:103330003BF029C061F02AC062F02BC063F02CC0C2
:1033400064F0300E6126000E6222000E6322000E31
:1033500064226150E66E25DCE552E552E7CFD9FFE5
:103360001200D9CFE6FFE1CFD9FFFD0EDBCFE6FF9C
:10337000FE0EDBCFE6FFD2DCE552E552640EF36EC3
:10338000FC0EDBCFF4FFF350F45C05E3630EF36E49
:10339000FC0EF3CFDBFF0A0EE66EE66AE66AE66A2B
:1033A000FC0EDBCF61F0626A636A646A61C0E6FFAB
:1033B00062C0E6FF63C0E6FF64C0E6FFFAEC3AF0E5
:1033C000656E080EE15E655056EC3BF0300FE66E20
:1033D000D1EC15F0E5522EEC3BF029C061F02AC08B
:1033E00062F02BC063F02CC064F0300E6126000E3A
:1033F0006222000E6322000E64226150E66ED1EC60
:1034000015F0E552E552E7CFD9FF120056EC3BF03C
:103410000F01386F0F0138510FE10F01395106E0EC
:10342000300EE66ED1EC15F0E55205D0200EE66EBA
:10343000D1EC15F0E5520AD00F01010E396F300EB4
:103440000F013825E66ED1EC15F0E5521200D9CF08
:10345000E6FFE1CFD9FF0F01546BFA0EDBCF39FF46
:10346000FD0EDBCFE6FFE66A59DCE552E552FE0EC3
:10347000DB500F01545D08E20F01542B200EE66E65
:10348000D1EC15F0E552F3D7D950F60FE96EFF0EE7
:10349000DA20EA6EEECFE6FFEECFE6FFEECFE6FFF4
:1034A000EFCFE6FF1AEC3BF0E552E552E552E5526C
:1034B000FC0EDB500A0802E15BD05AD0FC0EDB5058
:1034C000090802E165D054D0FC0EDB50080802E187
:1034D0006FD04ED0FC0EDB50070802E179D048D007
:1034E000FC0EDB50060802E183D042D0FC0EDB501C
:1034F000050802E18DD03CD0FC0EDB50040802E14F
:1035000096D036D0FC0EDB50030810E1FB0EDB50EA
:1035100003080AE1300EE66ED1EC15F0E5520F011A
:10352000542B0F01010E396F91D022D0FC0EDB50CD
:10353000020810E1FB0EDB5002080AE1300EE66ED5
:10354000D1EC15F0E5520F01542B0F01010E396F2C
:1035500096D00ED0FC0EDB040BE1FB0EDB0407E182
:10356000300EE66ED1EC15F0E5520F01542BA0D0D1
:10357000E66ACA0EE66E9A0EE66E3B0EE66E38EC12
:103580003BF0E552E552E552E55240DF0F01542B86
:10359000E66AE10EE66EF50EE66E050EE66E38ECB6
:1035A0003BF0E552E552E552E55230DF0F01542B76
:1035B000800EE66E960EE66E980EE66EE66A38ECC3
:1035C0003BF0E552E552E552E55220DF0F01542B66
:1035D000400EE66E420EE66E0F0EE66EE66A38ECC0
:1035E0003BF0E552E552E552E55210DF0F01542B56
:1035F000A00EE66E860EE66E010EE66EE66A38EC0A
:103600003BF0E552E552E552E55200DF0F01542B45
:10361000100EE66E270EE66EE66AE66A38EC3BF0C0
:10362000E552E552E552E552F1DE0F01542BE80E6A
:10363000E66E030EE66EE66AE66A38EC3BF0E552AB
:10364000E552E552E552E2DE0F01542B640EE66EC0
:10365000E66AE66AE66A38EC3BF0E552E552E55286
:10366000E552FB0EDB50030807E12E0EE66ED1ECAF
:1036700015F0E5520F01542BC9DE0F01542B0A0E31
:10368000E66EE66AE66AE66A38EC3BF0E552E55239
:10369000E552E552FB0EDB50020807E12E0EE66E06
:1036A000D1EC15F0E5520F01542BB0DE0F01542B75
:1036B000010EE66EE66AE66AE66A38EC3BF0E55231
:1036C000E552E552E552FB0EDB0407E12E0EE66EF5
:1036D000D1EC15F0E5520F01542B0F01010E396F9B
:1036E00095DE0F01542B100E0F01545D08E2200EE1
:1036F000E66ED1EC15F0E5520F01542BF4D7E552EC
:10370000E7CFD9FF1200D9CFE6FFE1CFD9FFFE0EF8
:10371000DB50080DF3504009E66EEAEC15F0E55277
:10372000FC0EDBCFE9FFDB2AFD0EDBCFEAFF01E376
:10373000DB2AEF50E66ED1EC15F0E552FC0EDBCF44
:10374000E9FFDB2AFD0EDBCFEAFF01E3DB2AEF50C6
:10375000E66ED1EC15F0E552FC0EDBCFE9FFDB2A7B
:10376000FD0EDBCFEAFF01E3DB2AEF50E66ED1EC82
:1037700015F0E552FC0EDBCFE9FFDB2AFD0EDBCFB7
:10378000EAFF01E3DB2AEF50E66ED1EC15F0E552DB
:10379000FC0EDBCFE9FFDB2AFD0EDBCFEAFF01E306
:1037A000DB2AEF50E66ED1EC15F0E552FC0EDBCFD4
:1037B000E9FFDB2AFD0EDBCFEAFF01E3DB2AEF5056
:1037C000E66ED1EC15F0E552FC0EDBCFE9FFDB2A0B
:1037D000FD0EDBCFEAFF01E3DB2AEF50E66ED1EC12
:1037E00015F0E552FC0EDBCFE9FFDB2AFD0EDBCF47
:1037F000EAFF01E3DB2AEF50E66ED1EC15F0E5526B
:10380000E552E7CFD9FF1200D9CFE6FFE1CFD9FFCC
:10381000FD0EDBCFE6FFFE0EDB50080DF350E55248
:10382000E7244009E66EEAEC15F0E552FC0EDBCF2A
:10383000E6FFD1EC15F0E552E552E7CFD9FF1200D3
:10384000D9CFE6FFE1CFD9FFFE0EDB50080DF350D4
:103850004009E66EEAEC15F0E552FC0EDBCFF6FF10
:10386000DB2AFD0EDBCFF7FF01E3DB2A0800F55072
:10387000E66ED1EC15F0E552FC0EDBCFF6FFDB2A4D
:10388000FD0EDBCFF7FF01E3DB2A0800F550E66E03
:10389000D1EC15F0E552FC0EDBCFF6FFDB2AFD0E76
:1038A000DBCFF7FF01E3DB2A0800F550E66ED1EC31
:1038B00015F0E552FC0EDBCFF6FFDB2AFD0EDBCF69
:1038C000F7FF01E3DB2A0800F550E66ED1EC15F0B6
:1038D000E552FC0EDBCFF6FFDB2AFD0EDBCFF7FF58
:1038E00001E3DB2A0800F550E66ED1EC15F0E55255
:1038F000FC0EDBCFF6FFDB2AFD0EDBCFF7FF01E38B
:10390000DB2A0800F550E66ED1EC15F0E552FC0E0E
:10391000DBCFF6FFDB2AFD0EDBCFF7FF01E3DB2A6F
:103920000800F550E66ED1EC15F0E552FB0EDBCF4A
:10393000E6FFD1EC15F0E552E552E7CFD9FF1200D2
:10394000D9CFE6FFE1CFD9FFFB0EDBCFE6FFFC0EC0
:10395000DBCFE6FFB5EC3AF0E552E55202C3E6FFF5
:10396000FD0EDBCFE6FFFE0EDBCFE6FFFADCE55215
:10397000E552E5523A0EE66EFD0EDBCFE6FFFE0E97
:10398000DB50020FE66EE5EC17F0E552E552E5522A
:1039900003C3E6FFFD0EDBCFE6FFFE0EDB50030F99
:1039A000E66EDFDCE552E552E5523A0EE66EFD0EBC
:1039B000DBCFE6FFFE0EDB50050FE66EE5EC17F001
:1039C000E552E552E55204C3E6FFFD0EDBCFE6FF0C
:1039D000FE0EDB50060FE66EC4DCE552E552E55202
:1039E000640EE66E2A0EE66EFD0EDBCFE6FFFE0EDF
:1039F000DB50080FE66EA4EC16F0E552E552E552F6
:0A3A0000E552E552E7CFD9FF1200AE
:063A0A001B0EE66EE66AE9
:103A1000FCEC22F0E552E5520BD812000F01606B6E
:103A2000616B0F01626B636B0F01646B656B12005E
:103A30000F01586B596B5A6B5B6B0F015C6BDDECC4
:103A400041F00F015E6F0F015D6BE66AC4EC26F07A
:103A5000E5520F01130E566F0F01130E556F0F0134
:103A60000F0E576FDBDF01D81200020119A315D02A
:103A7000020119A109D0110EE66E51EC21F0E552B8
:103A80000F01110E576F08D00F0EE66E51EC21F0AA
:103A9000E5520F01110E576F0DD0020119A105D08B
:103AA000E66A51EC21F0E55205D0130EE66E51ECBA
:103AB00021F0E552120017EC3CF00F015F6F8AEC29
:103AC00021F0130823E0CCEC24F0DDEC41F00F01F1
:103AD0005E6F0F015D510F015E5D18E00F015D51DA
:103AE00013E1C3DFD8EC2DF08AEC21F0130804E1D8
:103AF000E66AD7DBE55208D08AEC21F00F0804E132
:103B0000110EE66ECEDBE5525ECF5DFF0F01555123
:103B10000C082CE3020E0F015F5D11E1130EE66E3F
:103B2000C0DBE552E66AC4EC26F0E5522EC2E6FFA1
:103B3000B5EC36F0E552D8EC2DF0B2D317D0030E29
:103B40000F015F5D13E135EC3CF0080EE66EA9DB7A
:103B5000E552030EE66EC4EC26F0E5522FC2E6FFF6
:103B6000B5EC36F0E552D8EC2DF09AD30F015CA1FC
:103B700002D0FBEC27F00A0E0F015C5D08E30F0199
:103B80005C6B0F01582B000E59235A235B230F0146
:103B90005C2B0F015551130A01E127D3010A01E102
:103BA00002D3030A01E1C6D2010A01E19ED21F0A33
:103BB00001E14ED2010A01E143D2030A01E132D20E
:103BC000010A01E116D2070A01E1F7D1010A01E178
:103BD000D0D1030A01E15AD1010A01E149D10F0A0A
:103BE00001E10CD1010A01E1E7D0030A01E1B8D0FB
:103BF000010A01E19CD0070A01E17DD0010A62E0DF
:103C0000030A44E0010A01E004D32EC2E6FFB5EC4A
:103C100036F0E55202011AA116D00F015C510108DD
:103C20000CE202011AA505D0010EE66E3ADBE55260
:103C300004D0020EE66E35DBE552030EE66EC4ECF0
:103C400026F0E55222D002011AA316D00F015C51D2
:103C500001080CE202011AA505D0030EE66E21DB75
:103C6000E55204D0040EE66E1CDBE552020EE66E51
:103C7000C4EC26F0E55209D0050EE66E12DBE552E3
:103C8000010EE66EC4EC26F0E552C4D21BC261F010
:103C9000626A636A646A61500F01585D62500F0185
:103CA000595963500F015A5964500F015B5909E388
:103CB000050EE66EF6DAE552010EE66EC4EC26F06D
:103CC000E552A8D2060EE66E09EC28F0E552F3CFD5
:103CD00061F0F4CF62F0020161501C5D62501D5929
:103CE00009E3050EE66EDDDAE552010EE66EC4EC80
:103CF00026F0E5528FD21EC261F0626A636A646A7E
:103D000061500F01585D62500F01595963500F0106
:103D10005A5964500F015B5909E3050EE66EC1DA8A
:103D2000E552010EE66EC4EC26F0E55273D2060EA3
:103D3000E66E09EC28F0E552F3CF61F0F4CF62F0C3
:103D4000020161501F5D6250205909E3050EE66EC5
:103D5000A8DAE552010EE66EC4EC26F0E5525AD21E
:103D6000020E0F01585D000E5959000E5A59000EEF
:103D70005B5921E3020EE66E09EC28F0E552F3CF21
:103D800061F0F4CF62F002012151615C000E6258D3
:103D900012E2060EE66E09EC28F0E552F3CF63F06E
:103DA000F4CF64F0F40E635C010E645804E2060E76
:103DB000E66E77DAE5522ED2E66A09EC28F0E55293
:103DC000F3CF61F0F4CF62F002016150215D000E8B
:103DD000625405E2050EE66E64DAE5520ED0050E79
:103DE0000F01585D000E5959000E5A59000E5B59CB
:103DF00004E3070EE66E55DAE5520CD2E66A09ECEA
:103E000028F0E552F3CF61F0F4CF62F00201615087
:103E1000215D000E625405E2050EE66E42DAE552BF
:103E200026D0020122A123D023C261F024C262F075
:103E3000636A646A61500F01585D62500F015959FD
:103E400063500F015A5964500F015B5910E304ECA1
:103E500028F0080EE66E25DAE5522FC2E6FFB5EC33
:103E600036F0E552030EE66EC4EC26F0E552D2D1F0
:103E7000010E0F01585D000E5959000E5A59000EDF
:103E80005B5904E3090EE66E0CDAE552010E0F01F0
:103E9000585D000E5959000E5A59000E5B5968E3DF
:103EA000010E0F01581905E1595103E15A5101E181
:103EB0005B5104E10F015C0501E1B0DD25C261F059
:103EC000626A636A646A61500F01585D62500F0153
:103ED000595963500F015A5964500F015B5913E24D
:103EE000E66A09EC28F0E552F3CF61F0F4CF62F016
:103EF00002016150265D000E625404E20A0EE66E75
:103F0000D0D9E5521BD0E66A09EC28F0E552F3CF90
:103F100061F0F4CF62F002016150275D000E62543F
:103F200009E306EC3CF0F3CF63F0F4CF64F06350A8
:103F3000641004E00A0EE66EB4D9E552020122A331
:103F400017D028C261F029C262F0636A646A6150C6
:103F50000F01585D62500F01595963500F015A59B2
:103F600064500F015B5904E30D0EE66E9AD9E552D9
:103F700051D12EC2E6FFB5EC36F0E55202012AA17E
:103F800012D002012AA305D00B0EE66E8AD9E552A3
:103F900004D00C0EE66E85D9E552020EE66EC4EC36
:103FA00026F0E55209D0050EE66E7BD9E552010EEA
:103FB000E66EC4EC26F0E5522DD12BC261F0626AA8
:103FC000636A646A61500F01585D62500F0159596C
:103FD00063500F015A5964500F015B5909E3050EF4
:103FE000E66E5FD9E552010EE66EC4EC26F0E552AE
:103FF00011D1060EE66E09EC28F0E552F3CF61F020
:10400000F4CF62F0020161502C5D62502D5909E33A
:10401000050EE66E46D9E552010EE66EC4EC26F0BA
:10402000E552F8D030C2E6FFB5EC36F0E5520E0EA0
:10403000E66E37D9E552E66AC4EC26F0E552EAD0DE
:10404000020E0F015F5D03E1E66A2BD9E552E2D073
:1040500003EC27F0000904E0E66AC4EC26F0E55220
:10406000020E0F015F5D27E10F015751120A19E09F
:10407000030A0DE0010A01E01ED0100EE66E11D910
:10408000E552030EE66EC4EC26F0E55214D0110E94
:10409000E66E07D9E552010EE66EC4EC26F0E55255
:1040A0000AD0120EE66EFDD8E552020EE66EC4ECA2
:1040B00026F0E55200D006EC3CF0F3CF61F0F4CFEF
:1040C00062F0623404E261500008000E62540CE2B7
:1040D000100EE66EE6D8E552030EE66EC4EC26F04E
:1040E000E5520F01100E576F95D006EC3CF0F3CF60
:1040F00061F0F4CF62F0623404E261500008000E17
:10410000625409E2110EE66ECCD8E552010EE66E5D
:10411000C4EC26F0E552020E0F015F5D0AE155CFB7
:1041200057FF0F0EE66EBDD8E552E66AC4EC26F0E6
:10413000E55270D006EC3CF0F3CF61F0F4CF62F0C2
:104140000001800E62140AE0100EE66EAAD8E55255
:10415000030EE66EC4EC26F0E55216D006EC3CF0F9
:10416000F3CF61F0F4CF62F0623404E261500008F2
:10417000000E625409E2120EE66E93D8E552020E6A
:10418000E66EC4EC26F0E552020E0F015F5D0AE117
:1041900055CF57FF0F0EE66E84D8E552E66AC4ECA1
:1041A00026F0E55237D006EC3CF0F3CF61F0F4CFC7
:1041B00062F00001800E621409E0110EE66E71D803
:1041C000E552010EE66EC4EC26F0E552020E0F0138
:1041D0005F5D0AE155CF57FF0F0EE66E62D8E552DC
:1041E000E66AC4EC26F0E55215D003EC27F000098E
:1041F00004E0E66AC4EC26F0E552020E0F015F5DB2
:1042000007E1E66A4ED8E5520F015C6BADEC24F095
:1042100001D000D0E66A09EC28F0E552F3CF61F056
:10422000F4CF62F00F016150605D6250615908E2A5
:10423000E66A09EC28F0E552F3CF60FFF4CF61FFA6
:10424000010EE66E09EC28F0E552F3CF61F0F4CFF1
:1042500062F00F016150625D6250635909E2010E24
:10426000E66E09EC28F0E552F3CF62FFF4CF63FF6E
:10427000020EE66E09EC28F0E552F3CF61F0F4CFC0
:1042800062F00F016150645D6250655909E2020EEF
:10429000E66E09EC28F0E552F3CF64FFF4CF65FF3A
:1042A0001200D9CFE6FFE1CFD9FFFE0EDB500F01A0
:1042B000565D2CE0FE0EDBCF55FF58CFE6FF59CF01
:1042C000E6FF5ACFE6FF5BCFE6FF28D8F3CF61F0D9
:1042D000F4CF62F061C0E6FF62C0E6FF1F0EE66E3B
:1042E000E66A1B0EE66EE66A07EC24F0636E0A0EC1
:1042F000E15E6350FE0EDBCF56FF0F01586B596B2A
:104300005A6B5B6B0F015C6B0EEC1DF0E552E7CF57
:10431000D9FF12000F01555100D012000F01555165
:10432000130A01E188D0010A01E180D0030A01E10A
:1043300078D0010A71E01F0A6AE0010A63E0030A0B
:104340005CE0010A55E0070A4EE0010A47E0030A73
:1043500040E0010A39E00F0A32E0010A2BE0030ACB
:1043600024E0010A1DE0070A16E0010A0FE0030A33
:1043700008E0010A01E064D0270EF36EF46A65D00C
:1043800064D0280EF36EF46A60D05FD0290EF36E0D
:10439000F46A5BD05AD02A0EF36EF46A56D055D028
:1043A0002B0EF36EF46A51D050D02C0EF36EF46ADB
:1043B0004CD04BD02D0EF36EF46A47D046D02F0E62
:1043C000F36EF46A42D041D0300EF36EF46A3DD001
:1043D0003CD0310EF36EF46A38D037D0320EF36E23
:1043E000F46A33D032D0330EF36EF46A2ED02DD06F
:1043F000340EF36EF46A29D028D0350EF36EF46AC9
:1044000024D023D0360EF36EF46A1FD01ED0370EA0
:10441000F36EF46A1AD019D0380EF36EF46A15D020
:1044200014D0390EF36EF46A10D00FD03A0EF36E3A
:10443000F46A0BD00AD03B0EF36EF46A06D005D0B6
:10444000250EF36EF46A01D000D01200D9CFE6FF3A
:10445000E1CFD9FFFE0EDBCF22F2E552E7CFD9FF45
:104460001200D9CFE6FFE1CFD9FFFD0EDBCF23F25B
:10447000FE0EDBCF24F2E552E7CFD9FF120058CF72
:1044800029F059CF2AF05ACF2BF05BCF2CF000D077
:02449000120018
:0E44920004C215F30301166B176B186B196B40
:1044A000120004C215F31F0EE66E2B0EE66EE3EC4F
:1044B00039F0E552E5521200030115B74ED0030161
:1044C00015A14BD01A0EE66E2B0EE66EE3EC39F01A
:1044D000E552E552150EE66E2B0EE66EE3EC39F072
:1044E000E552E5520C0EE66E2B0EE66EE3EC39F06B
:1044F000E552E552020EE66E2B0EE66EE3EC39F065
:10450000E552E552E66A020EE66EE66AE66AE66A99
:10451000E66AE3EC30F0616E060EE15E6150000E7B
:10452000E66E2B0EE66EE3EC39F0E552E552E66AF4
:10453000020EE66E010EE66EE66AE66AE66AE3ECF5
:1045400030F0616E060EE15E6150F90EE66E2A0EE5
:10455000E66EE3EC39F0E552E5521200D9CFE6FF02
:10456000E1CFD9FF020E2B6E2C6AFD0EDBCF30F0AF
:10457000FE0EDBCF31F0A3EC41F0030103010E513D
:104580002924F66E030103010F512A20F76E09005A
:10459000F5CFE6FF0800F5CFE6FFE3EC39F0E55292
:1045A000E552F60EE66E2A0EE66EE3EC39F0E552C1
:1045B000E552020E2B6E2C6AFB0EDBCF30F0FC0EA8
:1045C000DBCF31F0A3EC41F0030103010E512924AC
:1045D000F66E030103010F512A20F76E0900F5CF93
:1045E000E6FF0800F5CFE6FFE3EC39F0E552E552CF
:1045F000E552E7CFD9FF1200D9CFE6FFE1CFD9FFCF
:10460000030115B719D0030115A316D0FD0EDBCF9A
:10461000E6FFFE0EDBCFE6FF060EE66EE66A9EDFE5
:10462000E552E552E552E5521F0EE66E2B0EE66EA0
:10463000E3EC39F0E552E552E552E7CFD9FF12003D
:10464000D9CFE6FFE1CFD9FF030115B71CD0030195
:1046500015A519D0FB0EDBCFE6FFFC0EDBCFE6FF86
:10466000FD0EDBCFE6FFFE0EDBCFE6FF77DFE55288
:10467000E552E552E5521F0EE66E2B0EE66EE3ECB8
:1046800039F0E552E552E552E7CFD9FF1200D9CF14
:10469000E6FFE1CFD9FF030115B743D0030115A50C
:1046A00040D0FB0EDBCFE6FFFC0EDBCFE6FFFD0EBE
:1046B000DBCFE6FFFE0EDBCFE6FF50DFE552E55233
:1046C000E552E552F20EE66E2A0EE66EE3EC39F0A4
:1046D000E552E552020E2B6E2C6AF90EDBCF30F05C
:1046E000FA0EDBCF31F0A3EC41F0030103010E51D0
:1046F0002924F66E030103010F512A20F76E0900E9
:10470000F5CFE6FF0800F5CFE6FFE3EC39F0E55220
:10471000E552EE0EE66E2A0EE66EE3EC39F0E55257
:10472000E552E552E7CFD9FF1200D9CFE6FFE1CF3E
:10473000D9FF030115B72ED0030115A52BD0FB0E11
:10474000DBCFE6FFFC0EDBCFE6FFFD0EDBCFE6FFA7
:10475000FE0EDBCFE6FF02DFE552E552E552E55201
:10476000F20EE66E2A0EE66EE3EC39F0E552E55203
:10477000F90EDBCFE6FFFA0EDBCFE6FFE3EC39F014
:10478000E552E552EE0EE66E2A0EE66EE3EC39F0E7
:10479000E552E552E552E7CFD9FF1200D9CFE6FF47
:1047A000E1CFD9FF030115B72ED0030115A52BD0FA
:1047B000FB0EDBCFE6FFFC0EDBCFE6FFFD0EDBCF13
:1047C000E6FFFE0EDBCFE6FFC9DEE552E552E5521D
:1047D000E552F20EE66E2A0EE66EE3EC39F0E55293
:1047E000E552F90EDBCFE6FFFA0EDBCFE6FFB0ECC9
:1047F00039F0E552E552EE0EE66E2A0EE66EE3EC77
:1048000039F0E552E552E552E7CFD9FF1200D9CF92
:10481000E6FFE1CFD9FF030115B76ED0030115A55F
:104820006BD0FB0EDBCFE6FFFC0EDBCFE6FFFD0E11
:10483000DBCFE6FFFE0EDBCFE6FF90DEE552E55272
:10484000E552E552EB0EE66E2A0EE66EE3EC39F029
:10485000E552E552020E2B6E2C6AF90EDBCF30F0DA
:10486000FA0EDBCF31F0A3EC41F0030103010E514E
:104870002924F66E030103010F512A20F76E090067
:10488000F5CFE6FF0800F5CFE6FFE3EC39F0E5529F
:10489000E552E80EE66E2A0EE66EE3EC39F0E552DC
:1048A000E5524C0E0301F76A0E25F66E0F51F72202
:1048B0000900F5CFE6FF0800F5CFE6FFE3EC39F09D
:1048C000E552E552E60EE66E2A0EE66EE3EC39F0AE
:1048D000E552E552F50EDBCFE6FFF60EDBCFE6FF45
:1048E00032EC32F0E552E5521F0EE66E2B0EE66E0C
:1048F000E3EC39F0E552E552E552E7CFD9FF12007B
:10490000D9CFE6FFE1CFD9FF030115B722D00301CC
:1049100015A91FD0E66A080EE66ED950FB0FE96EA6
:10492000FF0EDA20EA6EEECFE6FFEECFE6FFEECF27
:10493000E6FFEFCFE6FFE3EC30F0616E060EE15EDE
:104940006150E40EE66E2A0EE66EE3EC39F0E552B5
:10495000E552E552E7CFD9FF1200030115A71BD09E
:10496000DC0EE66E2A0EE66EE3EC39F0E552E55217
:10497000030115A908D0D20EE66E2A0EE66EE3EC0E
:1049800039F0E552E5528F0EE66E2A0EE66EE3EC44
:1049900039F0E552E5521200030115A7D3D1030106
:1049A00015A91DD0010EE66E0A0EE66E16C3E6FFCF
:1049B00017C3E6FF18C3E6FF19C3E6FFE3EC30F0C8
:1049C000616E060EE15E6150090EE66E91EC39F003
:1049D000E5520301162B000E172318231923E66A4C
:1049E0000A0EE66E3FEC22F029C061F02AC062F0A8
:1049F0002BC063F02CC064F061C0E6FF62C0E6FF2C
:104A000063C0E6FF64C0E6FFE3EC30F0656E060EBF
:104A1000E15E6550090EE66E91EC39F0E552020E4A
:104A2000E66E040EE66E070EE66E09EC28F0E5521F
:104A3000F3CF61F0F4CF62F0636A646A61C0E6FFAD
:104A400062C0E6FF63C0E6FF64C0E6FFE3EC30F05F
:104A5000656E060EE15E6550090EE66E91EC39F06A
:104A6000E552020EE66E040EE66E030EE66E09ECEB
:104A700028F0E552F3CF61F0F4CF62F0636A646A24
:104A800061C0E6FF62C0E6FF63C0E6FF64C0E6FF08
:104A9000E3EC30F0656E060EE15E6550090EE66EE1
:104AA00091EC39F0E552020EE66E040EE66E040E4D
:104AB000E66E09EC28F0E552F3CF61F0F4CF62F036
:104AC000636A646A61C0E6FF62C0E6FF63C0E6FF36
:104AD00064C0E6FFE3EC30F0656E060EE15E655003
:104AE000090EE66E91EC39F0E552020EE66E040E08
:104AF000E66E050EE66E09EC28F0E552F3CF61F0A4
:104B0000F4CF62F0636A646A61C0E6FF62C0E6FFE8
:104B100063C0E6FF64C0E6FFE3EC30F0656E060EAE
:104B2000E15E6550090EE66E91EC39F0E552010E3A
:104B3000E66E040EE66E060EE66E09EC28F0E5520F
:104B4000F3CF61F0F4CF62F0636A646A61C0E6FF9C
:104B500062C0E6FF63C0E6FF64C0E6FFE3EC30F04E
:104B6000656E060EE15E6550090EE66E91EC39F059
:104B7000E552010EE66E030EE66EE66A09EC28F0D9
:104B8000E552F3CF61F0F4CF62F0636A646A61C00A
:104B9000E6FF62C0E6FF63C0E6FF64C0E6FFE3EC49
:104BA00030F0656E060EE15E6550090EE66E91EC22
:104BB00039F0E552010EE66E030EE66E010EE66E6A
:104BC00009EC28F0E552F3CF61F0F4CF62F0636AAC
:104BD000646A61C0E6FF62C0E6FF63C0E6FF64C0CE
:104BE000E6FFE3EC30F0656E060EE15E6550090EFF
:104BF000E66E91EC39F0E552010EE66E030EE66EBC
:104C0000020EE66E09EC28F0E552F3CF61F0F4CF26
:104C100062F0636A646A61C0E6FF62C0E6FF63C077
:104C2000E6FF64C0E6FFE3EC30F0656E060EE15E81
:104C30006550090EE66E91EC39F0E552010EE66E14
:104C4000030EE66E60CF61F061CF62F0636A646A62
:104C500061C0E6FF62C0E6FF63C0E6FF64C0E6FF36
:104C6000E3EC30F0656E060EE15E6550090EE66E0F
:104C700091EC39F0E552010EE66E030EE66E62CF5E
:104C800061F063CF62F0636A646A61C0E6FF62C08C
:104C9000E6FF63C0E6FF64C0E6FFE3EC30F0656E5C
:104CA000060EE15E6550090EE66E91EC39F0E552B4
:104CB000010EE66E030EE66E64CF61F065CF62F022
:104CC000636A646A61C0E6FF62C0E6FF63C0E6FF34
:104CD00064C0E6FFE3EC30F0656E060EE15E655001
:104CE000090EE66E91EC39F0E5528EEC21F0F3CF2F
:104CF00061F0F4CF62F0010ED89061366236E806BA
:104D0000FBE1030103010E516124F66E030103016F
:104D10000F516220F76E0900F5CFE6FF0800F5CFCE
:104D2000E6FFE3EC39F0E552E5520D0EE66E91EC4C
:104D300039F0E552030115AB05D00A0EE66E91EC91
:064D400039F0E5521200FB
:0A4D46001A0EE66EE66AFCEC22F09D
:104D5000E552E55260821B6A1C6A1D6A1E6A1F6A60
:104D6000206A216A226A0A6A0B6A0C6A0D6A0E6A54
:104D70000F6A106A116A126A136A146A156A166A4F
:104D8000176A186A60921200D9CFE6FFE1CFD9FF07
:104D9000FE0EDB50185C33E0FE0EDB50186E36D88A
:104DA000F3CF61F0F4CF62F061C0E6FF62C0E6FFCE
:104DB000200EE66EE66A1A0EE66EE66A47EC23F00F
:104DC000636E060EE15E6350FE0EDB5003E18998D0
:104DD000928615D0FE0EDB0403E1928689880FD0FF
:104DE000FE0EDB50020804E189969296898807D06E
:104DF000FE0EDB50030803E1898692968988E5520E
:104E0000E7CFD9FF1200185000D012001850030A43
:104E100016E0010A0FE0030A08E0010A01E014D0DD
:104E2000210EF36EF46A15D014D0220EF36EF46ADC
:104E300010D00FD0240EF36EF46A0BD00AD0230EDC
:104E4000F36EF46A06D005D0250EF36EF46A01D035
:104E500000D0120060821BC01FF31CC020F30301AE
:104E60000A501F5D0B5020590CE203011F510A5CD0
:104E7000616E20510B58626E6150145E6250155A7B
:104E80000BD003010A501F5D616E0B502059626EFA
:104E900061501426625015221FC30AF020C30BF084
:104EA0001DC01FF31EC020F303010C501F5D0D50E9
:104EB00020590CE203011F510C5C616E20510D580A
:104EC000626E61501426625015220BD003010C5003
:104ED0001F5D616E0D502059626E6150145E62500C
:104EE000155A1FC30CF020C30DF01FC01FF320C0C4
:104EF00020F303010E501F5D0F5020590CE20301F7
:104F00001F510E5C616E20510F58626E6150142665
:104F1000625015220BD003010E501F5D616E0F50C1
:104F20002059626E6150145E6250155A1FC30EF014
:104F300020C30FF021C01FF322C020F30301105043
:104F40001F5D115020590CE203011F51105C616E6E
:104F500020511158626E6150145E6250155A0BD088
:104F6000030110501F5D616E11502059626E615037
:104F70001426625015221FC310F020C311F019C06F
:104F80001FF31AC020F3030112501F5D1350205964
:104F90000CE203011F51125C616E20511358626EC6
:104FA0006150145E6250155A0BD0030112501F5D00
:104FB000616E13502059626E6150142662501522A2
:104FC0001FC312F020C313F0153404E21450640818
:104FD000000E155403E2640E146E156AD880155045
:104FE00004E79C0E145CFF0E155803E29C0E146E31
:104FF000156860921200608214C016F015C017F098
:10500000146A156A60921200146A156A166A176AA1
:105010001200D9CFE6FFE1CFD9FF0301216B226B4C
:105020006082FE0EDB50070A01E184D0010A01E133
:105030007CD0030A75E0010A6EE0070A67E0010A06
:1050400027E0030A13E0010A01E079D0153404E2F5
:1050500014500008000E155405E214C021F315C0C9
:1050600022F303D00301216B226B69D00001800E73
:1050700015140AE014C021F315C022F30301216DB9
:10508000221F000E222303D00301216B226B57D075
:10509000153404E214500008000E155405E214C043
:1050A00021F315C022F311D00001800E15140AE07F
:1050B00014C021F315C022F30301216D221F000E3D
:1050C000222303D00301216B226B173404E2165014
:1050D0000008000E175407E2145003012127155051
:1050E0000301222312D00001800E17140EE02B685A
:1050F0002C6814C030F015C031F076EC41F0295026
:10510000030121272A500301222319D01FC021F3B4
:1051100020C022F314D01BC021F31CC022F30FD0F7
:105120001DC021F31EC022F30AD021C021F322C0EA
:1051300022F305D019C021F31AC022F300D06092E7
:1051400021C3F3FF22C3F4FF00D0E552E7CFD9FF1C
:10515000120018500BE11B6A1C6A1D6A1E6A196A4C
:105160001A6A1F6A206A216A226ADFD16080F0C24F
:105170001BF0F1C21CF0F2C21DF0F3C21EF0020ED1
:10518000E66E22EC3FF0E552F3CF19F0F4CF1AF0BF
:1051900060901D501B5C1E501C5803E31B501C10DC
:1051A00005E11F6A206A216A226AAFD11BC004F0A0
:1051B0001CC005F0066A076A1DC002F01EC003F09D
:1051C000006A016A04C061F005C062F0636A646A43
:1051D000000EE96E000EEA6E61C02EF062C02FF084
:1051E00063C030F064C031F0EECF29F0EECF2AF08A
:1051F000EECF2BF0EFCF2CF039EC42F02CC0EDFFCE
:105200002BC0EDFF2AC0EDFF29C0EFFF02500310B5
:1052100003E00868096804D000C008F001C009F084
:1052200008C004F009C005F0010E0F0B05E0D8908E
:1052300005320432E806FBE104C004F005C005F0C5
:10524000041E051E042A000E0522057E066A076A52
:1052500008C002F009C003F0010E0F0B05E0D89062
:1052600003320232E806FBE1038E006A016A04C0E1
:1052700061F005C062F0636A646A000EE96E000EB8
:10528000EA6E61C02EF062C02FF063C030F064C0DF
:1052900031F0EECF29F0EECF2AF0EECF2BF0EFCFAA
:1052A0002CF039EC42F02CC0EDFF2BC0EDFF2AC0F2
:1052B000EDFF29C0EFFF0150046E0250056E066A33
:1052C000076A640E2E6E2F6A306A316A04C029F0B4
:1052D00005C02AF006C02BF007C02CF001EC42F00C
:1052E00025C004F026C005F027C006F028C007F04E
:1052F0000550046E0650056E04C01FF005C020F076
:105300001B501D24086E1C501E20096E1D501B5C76
:10531000006E1E501C58016E026A036A046A056A18
:105320000668076808C061F009C062F0636A646AD1
:10533000040EE96E000EEA6E61C02EF062C02FF01E
:1053400063C030F064C031F0EECF29F0EECF2AF028
:10535000EECF2BF0EFCF2CF039EC42F02CC0EDFF6C
:105360002BC0EDFF2AC0EDFF29C0EFFF00C061F0A8
:1053700001C062F0636A646A040EE96E000EEA6EB0
:1053800061C02EF062C02FF063C030F064C031F015
:10539000EECF29F0EECF2AF0EECF2BF0EFCF2CF0AE
:1053A00001EC42F028C0EDFF27C0EDFF26C0EDFF65
:1053B00025C0EFFF06C004F007C005F0066A076AC3
:1053C000010E2E6E040E2F6E306A316A04C029F071
:1053D00005C02AF006C02BF007C02CF001EC42F00B
:1053E00025C004F026C005F027C006F028C007F04D
:1053F00006C021F007C022F0000ED8801954080E14
:105400001A5407E319C004F01AC005F0066A076AC7
:1054100005D0046A080E056E066A076A040EE96E76
:10542000000EEA6E04C02EF005C02FF006C030F06A
:1054300007C031F0EECF29F0EECF2AF0EECF2BF0FF
:10544000EFCF2CF001EC42F028C0EDFF27C0EDFFBC
:1054500026C0EDFF25C0EFFF000ED8802154040EBA
:10546000225425E321C061F022C062F0636A646ABD
:10547000040EE96E000EEA6E61C02EF062C02FF0DD
:1054800063C030F064C031F0EECF29F0EECF2AF0E7
:10549000EECF2BF0EFCF2CF001EC42F028C0EDFF67
:1054A00027C0EDFF26C0EDFF25C0EFFF08D00A0E94
:1054B000D8900436053606360736E806F9E1055079
:1054C000046E0650056E0750066E076A030E185CE0
:1054D00006E1D890043605360636073608D0020EA7
:1054E000D8900436053606360736E806F9E1000E90
:1054F000D8800654040E075405E306C021F007C007
:1055000022F003D0216A040E226E020E0F0B05E07A
:10551000D8901C321B32E806FBE1020E0F0B05E0AF
:0C552000D8901E321D32E806FBE112009C
:04552C00000EE66E19
:10553000020EE66E080EE66EE66A000EE66EE66A9B
:105540001CEC3EF0616E060EE15E6150000EE66EF0
:10555000020EE66E060EE66E7C0EE66E1F0EE66E20
:105560002EEC40F0636E050EE15E6350F3CF61F008
:10557000F4CF62F061500201061902E1625007198E
:1055800001E001D812000201006B0201010E016F5F
:105590000201026B02010A0E036F0201070E046F83
:1055A0000201056B000EE66E020EE66E060EE66E5A
:1055B0007C0EE66E1F0EE66E2EEC40F0616E050E60
:1055C000E15E6150F3CF06F2F4CF07F212000F0E46
:1055D000E66EE66A0C0EE66EE66A20EC23F0E55213
:1055E000E552E552E552000EE66E020EE66E080E3A
:1055F000E66EE66A000EE66EE66A1CEC3EF0616E50
:10560000060EE15E6150000EE66E020EE66E060EBC
:10561000E66E7C0EE66E1F0EE66E2EEC40F0636EBC
:10562000050EE15E6350F3CF61F0F4CF62F061509C
:105630000201061902E1625007191BE0150EE66E21
:10564000E66A0C0EE66EE66A20EC23F0E552E552BF
:10565000E552E5520D0EE66EE66A0C0EE66EE66A5F
:1056600020EC23F0E552E552E552E552000E0FD052
:105670000ED0140EE66EE66A0C0EE66EE66A20ECBC
:1056800023F0E552E552E552E552010E00D012003A
:10569000120EE66EE66A0C0EE66EE66A20EC23F069
:1056A000E552E552E552E552000EE66E020EE66E58
:1056B000060EE66E7C0EE66E1F0EE66E2EEC40F0D9
:1056C000616E050EE15E6150F3CF06F2F4CF07F292
:1056D000000EE66E020EE66E080EE66EE66A000E3C
:1056E000E66EE66A84EC3EF0616E060EE15E6150A5
:1056F0001200D9CFE6FFE1CFD9FF7A0EE66E020E97
:10570000E66E020EE66EE66AFE0EDB50636E646ABB
:10571000380E2B6E2C6A63C030F064C031F0A3ECFD
:1057200041F029C061F02AC062F03C0E6126000EF3
:10573000622261C0E6FF62C0E6FF1CEC3EF0656ECF
:10574000060EE15E65505A0E02017A1902E1A50EBD
:105750007B1903E0000E03D002D0010E00D0E55209
:10576000E7CFD9FF1200D9CFE6FFE1CFD9FF020181
:105770008C6BFE0EDBCFE6FFBCDFE552000927E0B5
:105780007C0EE66E020EE66E100EE66EE66AFE0E09
:10579000DB50636E646A380E2B6E2C6A63C030F087
:1057A00064C031F0A3EC41F029C061F02AC062F07E
:1057B000080E6126000E622261C0E6FF62C0E6FFAD
:1057C0001CEC3EF0656E060EE15E655010D0100ECA
:1057D000E66E7C0EE66E020EE66E170EE66E190E93
:1057E000E66E80EC3BF0616E050EE15E61507C0E72
:1057F000616E020E626E61C0F3FF62C0F4FF00D002
:10580000E552E7CFD9FF1200D9CFE6FFE1CFD9FFAC
:10581000FE0EDB50010A25E0010A01E044D002013E
:105820008D6B02018D51616E626A380E615C000EF3
:10583000625816E202018D51EA6A400FE96E020ECB
:10584000EA22EF50E66E02018D51EA6A080FE96E16
:10585000020EEA22E552E750EF6E02018D2BE1D7EE
:1058600022D002018D6B02018D51616E626A380E89
:10587000615C000E625816E202018D51EA6A080F5F
:10588000E96E020EEA22EF50E66E02018D51EA6ADD
:10589000400FE96E020EEA22E552E750EF6E020178
:1058A0008D2BE1D700D0E552E7CFD9FF1200D9CF39
:1058B000E6FFE1CFD9FF100EE66E400EE66E020E57
:1058C000E66E060EE66E190EE66E80EC3BF0616E3B
:1058D000050EE15E6150FE0EDB50300F02014F6F8E
:1058E0000201506B400EE66E020EE66E0E0EE66E84
:1058F000E66A0C0EE66EE66ACEEC23F0616E060EEA
:10590000E15E61500201516B0201526B02013C0EDB
:10591000536F3C0E0201546F556B0201050E566F1A
:1059200002012C0E576F010E586F02010A0E596FBB
:105930000201030E5A6F0201100E5B6F0E0E5C6FB8
:105940000201010E5D6F0201190E5E6F02010F0E62
:105950005F6F0201400E606F380E616F0201030E2F
:10596000626F0201050E636F02012C0E646F010E5F
:10597000656F0201020E666F0201040E676F02017D
:10598000080E686F02013F0E696F02010F0E6A6F09
:105990000201280E6B6FFA0E02016C6F6D6B020133
:1059A000050E6E6F02010F0E6F6F640E0201706FB5
:1059B000716B0201880E726F130E736F400EE66EEC
:1059C000020EE66E340EE66EE30EE66E8A0EE66EAC
:1059D0002EEC40F0616E050EE15E6150F3CF76F281
:1059E000F4CF77F202015A0E746FA50E756FE5526F
:1059F000E7CFD9FF1200D9CFE6FFE1CFD9FF100ED4
:105A0000E66EE66A0C0EE66EE66A20EC23F0E552DE
:105A1000E552E552E552400EE66E020EE66E380E95
:105A2000E66EE66AFE0EDB50636E646A380E2B6E1D
:105A30002C6A63C030F064C031F0A3EC41F029C09F
:105A400061F02AC062F0080E6126000E622261C079
:105A5000E6FF62C0E6FF1CEC3EF0656E060EE15EFE
:105A60006550400EE66E020EE66E340EE66EE30EF4
:105A7000E66E8A0EE66E2EEC40F0636E050EE15E79
:105A80006350F3CF61F0F4CF62F0615002017619F8
:105A900002E1625077190FE0150EE66EE66A0C0E11
:105AA000E66EE66A20EC23F0E552E552E552E55257
